:020000040800F2
:10000000204A002081390008450100084701000806
:100010004B0100084F0100085301000800000000D8
:100020000000000000000000000000005701000870
:1000300059010008000000005B0100085D01000894
:100040009B3900089B3900089B3900089B39000840
:100050009B3900089B3900089B3900089B39000830
:100060009B3900089B3900089B3900089B39000820
:100070009B3900089B3900089B3900089B39000810
:100080009B3900089B390008BB0400089B39000815
:100090009B3900089B3900089B3900089B390008F0
:1000A0009B3900089B3900089B3900089B390008E0
:1000B0009B390008E30400089B3900089B390008BD
:1000C0009B3900089B3900089B3900089B390008C0
:1000D0009B3900085F0100084B0200089B390008AB
:1000E0009B3900089B3900089B3900089B390008A0
:1000F0009B3900089B3900089B3900089B39000890
:100100009B3900089B3900089B3900089B3900087F
:100110009B3900089B3900089B3900089B3900086F
:100120009B3900089B3900089B3900089B3900085F
:10013000DFF80CD004F0FAFB004800473F0C000841
:10014000204A0020704700BFFEE700BFFEE700BF67
:10015000FEE700BFFEE7704770477047704710B575
:1001600040F22551FE4802F05DF9002844D0FC48D9
:1001700002F0D8F8C4B2022C0BD1FA48008800F47F
:10018000804030B9F748008840F48040F549088045
:1001900010BDF448008800F4804068B3F14800883E
:1001A00000F4004040BBEF480088C0F30D01EE486A
:1001B0000078401C81420CD1032C06D1E94800880C
:1001C00040F40040E749088016E00020E549088037
:1001D00012E0E4480088C0F30D00E3490C54E14804
:1001E0000088401CDF49088008460088C0F30D00E5
:1001F000502801DB0020088040F22661D84802F038
:1002000011F900B3D9480078002812DDD8480068F9
:10021000D84A1278815CD24802F080F8D54800783C
:10022000401CD4490870D1480078401ECF4908705E
:1002300009E040F22661CA4802F01EF90020CC49CC
:100240000860CC49087000BFA2E710B540F2255104
:10025000C94802F0E7F8002872D0C74802F062F8F7
:10026000C4B2C6480078022807D0C44800780128E4
:1002700003D0C248007804286FD1C1480078112803
:100280006CD2DFE800F009112026323E4A4B4C4D7B
:100290004E4F5562707177002F2C04D1B84800780A
:1002A000401CB749087077E0B44800783030844289
:1002B00005D1B3480078401CB149087002E0002025
:1002C000AF49087068E0AE480078401CAC4908703F
:1002D00062E0502C05D1AA480078401CA84908705B
:1002E00002E00020A649087056E06F2C05D1A44812
:1002F0000078401CA249087002E00020A049087064
:100300004AE0732C05D19E480078401C9C49087037
:1003100002E000209A4908703EE000BF00BF00BF25
:1003200000BF00BF96480078401C9549087033E034
:10033000692C06D192480078401C9149087003E06E
:100340008FE000208E49087026E0732C07D18C487E
:100350000078401C8A49087004E01EE018E0002084
:100360008749087018E000BF85480078401C844920
:10037000087011E0412C01D0422C05D18148047055
:1003800000207F49087002E000207D49087003E0EA
:1003900000207B49087000BF63E079480078062898
:1003A0005AD2DFE800F0030B1A2632422F2C04D178
:1003B00073480078401C7249087051E06F4800781B
:1003C0003030844205D16E480078401C6C4908707A
:1003D00002E000206A49087042E0432C05D16848D9
:1003E0000078401C6649087002E0002064490870EB
:1003F00036E0502C05D162480078401C60490870F6
:1004000002E000205E4908702AE0302C09DB392C1C
:1004100007DC5D4804705A480078401C5849087051
:1004200002E00020564908701AE0302C10DB392C0D
:100430000EDCA4F1300054490978303901EB810118
:1004400000EB41004F49087000204D49087002E060
:1004500000204B49087003E000204949087000BFA4
:1004600000BF40F22661444801F0DCFF20B347485A
:100470000078002812DD46480068464A1278815C00
:100480003D4801F04BFF43480078401C414908704B
:100490003E480078401E3D4908700DE040F226615C
:1004A000354801F0E9FF00203949086039490870F2
:1004B0000821394801F083FB10BD10B5374802F020
:1004C00089F93749374A127821F8120035480078FF
:1004D000401CC0B233490870142801D100200870B4
:1004E00010BD2DE9F04701212F4803F034FA002810
:1004F00035D001212C4803F03FFA2C480078401CED
:100500002A4908700846007814287DDB28480088AE
:1005100000F4007010B327480088401C254908806B
:100520000846008824490978884253DB234800881C
:1005300004F06AF90646224A224B04F073F8044696
:100540000022214B04F06EF8804604F06AF91F493E
:10055000A1F8030003F0FDFF002039E03AE080E05D
:10056000003801403C000020CE0000204400002064
:1005700040000020000000200044004059000020FE
:100580000300002045000020010000204C00002056
:10059000480000200200002000100140002401401B
:1005A000A6000020040000200004004005000020F8
:1005B00026000020080000208500002020000020E8
:1005C00088BE73A86EE6F03E00408F406C000020AD
:1005D000254908802548007800F0800098B124481B
:1005E0000078401C224908700846007805280ADB7C
:1005F0002048B0F900002049A1F8030003F0B8FF3B
:1006000000201B49087000E024E01848008800F42E
:10061000806098B119480078401C18490870084655
:10062000007806280ADB1648B0F900001549A1F841
:10063000030003F0ACFF0020104908700B4800785D
:1006400000F0200018B101F053F90F490880002094
:100650000E4908700548007800F0200008B103F04A
:10066000BEFBBDE8F0870000080000202600002047
:100670000600002022000020730000200700002058
:10068000240000207A000020200000200500002027
:100690000CB50020019000906C48006840F4803058
:1006A0006A49086000BF6948006800F400300090A3
:1006B0000198401C0190009818B90198B0F5A06FFE
:1006C000F1D16248006800F4003010B101200090C0
:1006D00001E0002000900098012843D15C480068A8
:1006E00040F010005A4908600846006820F00300F6
:1006F00008600846006840F00200086053484068FF
:10070000524948600846406848600846406840F4DE
:10071000806048600846406820F47C1048600846C5
:10072000406840F4E81048600846006840F0807077
:10073000086000BF4548006800F000700028F9D04C
:100740004248406820F0030040494860084640683D
:1007500040F00200486000BF3C48406800F00C00D8
:100760000828F9D10CBD10B5FFF792FF10BD10B5E8
:100770003648006840F00100344908600846406887
:100780003449084031494860084600683249084009
:100790002E4908600846006820F48020086008465A
:1007A000406820F4FE0048604FF41F008860FFF7A7
:1007B000DAFF4FF000602949086010BD10B5002134
:1007C00000200022214B5B6803F00C0121B10429B9
:1007D00006D0082928D107E0214B224C236027E0CE
:1007E0001F4B204C236023E0184B5B6803F4701010
:1007F000164B5B6803F48032022303EB904022B96E
:10080000194B4343174C23600DE0104B5B6803F416
:10081000003323B1144B4343124C236003E0104BCD
:100820004343104C236003E00D4B0E4C236000BF8C
:1008300000BF064B5B68C3F303130C4CE15C094B30
:100840001B68CB40074C236010BD00000010024025
:10085000002002400000FFF8FFFFF6FE08ED00E078
:1008600000127A000C00002000093D00100000205A
:1008700010B500230E220121184603F097FC002337
:1008800005224221022003F091FC10BD10B5012386
:100890000E221946002003F089FC18B9FFF7E8FF83
:1008A000002010BD012318221946032003F07EFC0E
:1008B00018B9FFF7DDFF0020F3E7012305224221ED
:1008C000022003F073FC08B90020EAE701230522A7
:1008D0004121042003F06AFC08B90020E1E701206F
:1008E000DFE710B5012305224221184603F05EFC24
:1008F00008B9002010BD01230E220221002003F0C0
:1009000055FC18B9FFF7B4FF0020F3E7F649488813
:1009100001F03AF8012305224121184603F046FC74
:1009200018B9FFF7A5FF0020E4E7EF49488801F078
:100930002BF801230E221946002003F037FC08B9DA
:100940000020D7E70120D5E710B5E84800884FF62A
:100950007F510840E54908800123182219460020EC
:1009600003F024FC08B9002010BD01231822194609
:10097000032003F01BFC08B90020F5E70123052242
:100980004121184603F012FC08B90020ECE70123CE
:1009900005224221022003F009FC08B90020E3E708
:1009A000012305224121042003F000FC08B90020A6
:1009B000DAE72A2310220321084603F07AFC08B95B
:1009C0000020D1E7072301220321084603F071FC30
:1009D00008B90020C8E72A2302220421032003F0DB
:1009E00068FC08B90020BFE7072301220421032087
:1009F00003F05FFC08B90020B6E70123052242217D
:100A0000184603F0D3FB08B90020ADE70123052207
:100A10004121184603F0CAFB08B90020A4E70123CE
:100A200005224121022003F0C1FB18B9FFF720FF86
:100A3000002099E7012305224221022003F0B6FBA2
:100A400008B9002090E7012305224221042003F089
:100A5000ADFB08B9002087E7052000F095FF0123D2
:100A600005224121042003F0A1FB08B900207BE707
:100A7000222304220321002003F01BFC08B90020DC
:100A800072E70E2301220321002003F012FC08B9B3
:100A9000002069E7222302220421002003F009FC40
:100AA00018B9FFF7E5FE00205EE7052000F06CFFB7
:100AB0000E2301220421002003F0FBFB08B90020D3
:100AC00052E78A48007800F0200090B340F6FF71AA
:100AD000002002F00AF801230E220421002003F076
:100AE00065FB08B900203FE7052000F04DFF00211D
:100AF000084601F0FAFF01230E221946002003F0F8
:100B000055FB08B900202FE77948008858B906201E
:100B10007849C87003F000FD02207749087003F09F
:100B2000E0F8002020E77148008840F400706F4929
:100B300008806E48007800F04000A8B103F0B0FAD9
:100B4000803058B907206B49C87003F0E5FC0220DB
:100B50006949087003F0C5F8002005E7634800887C
:100B600040F08000614908800120FDE60021634AD1
:100B70001180002004E00021614A1154411CC8B2D8
:100B80005028F8DB00215F4A11605F4A11705F4A0C
:100B900011705F4A11605F4A11705F4A11705F4ABD
:100BA0001170554A11705E4A1170002005E0002155
:100BB0005C4A22F81010411CC8B21428F7DB00214F
:100BC0004B4A1180584A1180584A1180474A118077
:100BD0000221574A117003215170002191700321A5
:100BE00051710221534A11700321517006219170F5
:100BF0000321517102213F4A1170032151700721D5
:100C000091700321517102214B4A117004215170DE
:100C10000B219170032191710221484A1170042126
:100C200051700D219170032191710221444A11707C
:100C300004215170122191700321917170478AB083
:100C40000027B8460026B246B34602F0ABFE4FF48A
:100C5000A06001F02BFC4FF4165002F0C3FE4FF4DD
:100C6000165002F00CFF02F056FF02F0B1FF03F045
:100C700003F803F063F803F0BEF803F0E3F803F0C1
:100C80000FF903F051FA03F0A5FCFFF76FFFFF2007
:100C90002849C870012406E003F025FC642000F018
:100CA00057FE601CC4B2042CF6DB00202149C8703A
:100CB000002498E21148008800F40040002872D017
:100CC0000F480078401EC1B20D48401C00F0E0FD06
:100CD0000B4909780A4A515C884271D11046407824
:100CE00012286ED22EE0000088000020260000208E
:100CF0002000002066000020830000203C0000202F
:100D0000CE000020400000204400002045000020CC
:100D1000480000204C0000208100002082000020BC
:100D200084000020A60000202200002024000020D3
:100D30005A000020600000206C000020730000209A
:100D40007A000020DFE800F0092030F5F4F33D3DA3
:100D5000BAF66B3D9C3D3E58F1ADFA4880780628C6
:100D600002D007280ED106E0F748008840F00100C5
:100D7000F549088006E0F448008840F01000F24988
:100D8000088000BF00BF99E10120F049C87003F05E
:100D90009BFBEF48EB49891C0A6802604A68426085
:100DA000098901818AE18DE10220E849C87003F0D8
:100DB0008BFB1422E349891CE64803F021FC7DE10A
:100DC0007DE17AE10E20E149C87003F07DFB02F07D
:100DD00096FF01230E220221002003F0E7F90128EB
:100DE00007D10024D848008840F48070D649088094
:100DF00001E0FFF73DFD61E10F20D449C87003F029
:100E000063FB0024D048008840F00200CE490880EF
:100E100002F075FF1021D04800F0D1FE4EE10A200B
:100E2000CA49C87003F050FBC6484088089008982B
:100E300003F0EAFC0022C94BCDE9000103F064FC99
:100E4000C74AC84BCDE9020103F0ECFBCDE9040130
:100E500003F0E7FC80B20790BB48008840F0200018
:100E6000B9490880032E07D10020079901F03DFE03
:100E70000520BD49087002E00520BB4908701DE14E
:100E80000C20B249C87003F01FFBAE48B0F90290C5
:100E9000AD48008840F04000AB4908804FF0060B99
:100EA0000CE11120A949C87003F00EFB00BFA64851
:100EB000008840F48060A4490880FFE00820A3492E
:100EC000C87003F001FB02F01AFF1021A24800F0E5
:100ED00076FEFFF739FD012826D10020A349C8700E
:100EE00003F01AFB0220A249087000240027002604
:100EF0004FF0000A4FF0000800209E4908709E49FC
:100F000008709B4908709D4908708F48008800F45C
:100F1000DC608D49088000209949C87002F0FDFE10
:100F200010218D4800F04DFEC8E080E002E052E064
:100F30003FE015E009208549C87003F0C5FA02F0CA
:100F4000DEFEFFF7CEFC012809D100208C49C870D5
:100F500003F0C9FA02208749087002F0DEFEADE016
:100F600003207A49C87003F0AFFAFFF78FFC01281D
:100F700013D18348C07800F010008149C87003F095
:100F8000B2FA02207B49087000264FF0000802F0F8
:100F9000C4FE1021704800F014FE0021084601F044
:100FA000A4FD694800884FF6FD7108406649088035
:100FB00084E004206549C87003F086FA624800881E
:100FC00040F002006049088002F099FE102162485A
:100FD00000F0F5FD72E005205C49C87003F074FA7A
:100FE000FFF754FC012816D16548C07800F01000C6
:100FF0006349C87003F077FA02205E490870002444
:1010000000264FF0000A4FF0000802F086FE102183
:10101000514800F0D6FD0021084601F066FD4A481F
:1010200000884FF6FD7108404749088046E01020CF
:101030004649C87003F048FA01230E2219460020E1
:1010400003F0B4F838B9404800884FF6FF61084013
:101050003D49088032E0012318221946032003F09D
:10106000A5F838B9384800884FF6FF61084036497E
:10107000088023E0012305224121184603F096F859
:1010800038B9314800884FF6FF6108402E49088082
:1010900014E000203A49C87003F025FA02203549CF
:1010A000087000240027284800884FF6FF61084098
:1010B0002549088002F031FE00E000BF00BF00209B
:1010C000304908802048008800F48070002874D0DF
:1010D000002F72D174E01F4800680121A140084030
:1010E00070B3204604EBD0714910891CCDB20123A6
:1010F00018222946032003F059F848B9FFF7B8FB36
:10110000114800884FF6FF6108400F49088059E0F8
:10111000601C00EBD0714910A0EB410189B10123A3
:1011200005224121184603F041F868BBFFF7A0FBF8
:10113000054800884FF6FF6108400349088041E0F8
:101140003CE022E0CE000020260000205A000020D3
:1011500088000020920000200010014000408F40D5
:10116000BAE8A28BAE4BEE4085000020660000205E
:1011700083000020810000208200002084000020E5
:10118000600000203C00002010E0012305224221E5
:10119000184603F00BF848B9FFF76AFBFC480088D3
:1011A0004FF6FF610840FA4908800BE0F9480088D3
:1011B0004FF6FF7101EA400704E046E0601CC4B24C
:1011C0001E2C88DB00BF1E2C3FD101230E221946A6
:1011D000002002F0EBFF38B9ED4800884FF6FF61C0
:1011E0000840EB49088039E30123182219460320FF
:1011F00002F0DCFF38B9E64800884FF6FF6108408E
:10120000E34908802AE3012305224121184602F020
:10121000CDFF38B9DE4800884FF6FF610840DC4951
:1012200008801BE30020DC49C87003F05CF9022051
:10123000DA49087000240027D54800884FF6FF617E
:101240000840D349088002F068FDD148007800F0DA
:10125000020000283FD0B8F1000F3CD1BAF1000FD6
:1012600023D11FE0CE4801680120A0400140B9B160
:10127000204604EBD0725310C94A121DD25C21469D
:1012800004EBD1735B10A4EB43039B001A4102F003
:101290000F0ABF48008840F00400BD49088003E001
:1012A000601CC4B21E2CDDDB00BF1E2C40D1B84830
:1012B000007800F0080078B9B649488800EBD07192
:1012C00049104FF6FF7202EA4108B148008840F029
:1012D0000800AF49088045E201230522412104208E
:1012E00002F064FF10B9FFF7C3FA19E001230522E9
:1012F0004221022002F05AFF012811D1A648C078ED
:1013000000F0DF00A449C87003F0EDF80220A34903
:101310000870002402F001FD1021A24800F051FCE9
:101320009B4800884FF6F57108409949088019E2FA
:10133000701CC6B2072E72D2DFE806F0710430725C
:10134000F3F2F10001230E220221002002F02EFF11
:10135000012819D19048C07800F03F008E49C8702C
:101360000846C07840F04000C87003F0BCF8022086
:101370008A4908708749488800EBD07149104FF6B8
:10138000FF7202EA410808E0FFF772FA804800881D
:101390004FF6FD7108407E490880E2E101230522F5
:1013A0004121042002F002FF48B9FFF761FA7848B2
:1013B00000884FF6FD710840754908802EE0012332
:1013C00005224221022002F0F1FE01281DD17248BF
:1013D000C07800F0DF007049C87003F084F8022084
:1013E0006E4908706B49488800EBD07149104FF680
:1013F000FF7202EA41086648008800F4007068B194
:101400000020079901F071FB08E0FFF731FA60480E
:1014100000884FF6FD7108405D490880A1E19FE119
:1014200001230E221946002002F0C0FE58B9002107
:10143000084601F05AFB564800884FF6FD710840F7
:10144000534908808DE1204604EBD0714910891C76
:10145000CDB2092D14DD0A2095FBF0F100FB1150EF
:10146000401CA5EB4000801E00EB8001C1EB00207A
:1014700000F52370642190FBF1F0C0B206900BE000
:10148000A81E00EB8001C1EB002000F52370642151
:1014900090FBF1F0C0B20690012329460320069A82
:1014A00002F084FE58B90021084601F01EFB3848BE
:1014B00000884FF6FD7108403549088051E120460B
:1014C00004EBD0714910491C334AD2781143324A97
:1014D000D1702F48007800F00400B0B3601C00EB1E
:1014E000D0714910A0EB4101E1B101230522412156
:1014F000184602F05BFE58B90021084601F0F5FAE3
:10150000234800884FF6FD7108402149088028E1F2
:101510002148C07800F0EF001F49C8701CE0E6E0E9
:10152000A7E060E0012305224221184602F03EFEBA
:1015300060B90021084601F0D8FA154800884FF636
:10154000FD710840124908800BE10CE01248C07898
:1015500040F010001049C8700D4800884FF6FB712C
:1015600008400B49088001230E220421002002F0CC
:101570001DFEC8B9FFF77CF90021084601F0B5FA55
:10158000034800884FF6FD71084001490880E8E0F3
:10159000260000208800002060000020810000203C
:1015A0009200002000100140AD48C07800F03F00DC
:1015B000AB49C8700846C07840F08000C87002F09F
:1015C00092FF0220A7490870A74880884FF6FF7154
:1015D00001EA4008A548008800F4007010B1052019
:1015E000A3490870BDE0A148007800F02000B0B128
:1015F000A048008898B906209F49C87002F08CFF67
:1016000002209E49087002F06CFBFFF731F9974801
:1016100000884FF6FD71084094490880A1E002F06F
:10162000C4FE012811D18E48C07800F030008C49EA
:10163000C87002F058FF02208A4908708A48C088A2
:101640004FF6FF7101EA400806E0884800884FF62F
:10165000FD710840854908808448008800F40070C6
:1016600030B10021084601F040FA05208049087099
:1016700077E04FF48051824800F087FA88B905205E
:101680007D49C87002F048FF02207C49087002F0D2
:1016900028FB764800884FF6FD71084073490880A2
:1016A0005FE0012305224121022002F07FFD012895
:1016B00013D16B48C07840F020006949C87002F02F
:1016C00012FF022067490870674800894FF6FF71D2
:1016D00001EA400802F0AFFA08E0FFF7C9F86348F2
:1016E00000884FF6FD7108406049088039E04FF4EA
:1016F0008051634800F049FA88B905205E49C870F6
:1017000002F00AFF02205D49087002F0EAFA574829
:1017100000884FF6FD7108405449088021E00123FC
:1017200005224221042002F041FD01280ED14E493C
:10173000488800EBD0714C4A1289A2EB61014FF648
:10174000FF7202EA410802F076FA08E0FFF790F82B
:10175000464800884FF6FD7108404449088000E083
:1017600000BF00BF4148007800F0010060B9454863
:10177000007848B93B48007830B102F0B4FE3948EF
:101780000078401E374908703848007800F0100093
:1017900060B93D48007848B93848007830B102F067
:1017A000BBFE36480078401E344908704FF4FA708A
:1017B00000F0CEF833480078002804DD3148007886
:1017C000401E3049087030480078002804DD2E485B
:1017D0000078401E2C490870002F04DD781E87B267
:1017E0000FB9601CC4B2B8F1000F12DDA8F10100FE
:1017F0001FFA80F8B8F1000F0BD1062E09D1002690
:10180000AAF1010000F0FF0ABAF1000F01D1601C3B
:10181000C4B21648007800F08000F0B1BBF1000FB0
:101820001BDDABF1010000F0FF0BBBF1000F14D189
:1018300002F036FC154908800846B0F9000048451A
:1018400002DA02F099FC06E01048B0F900004845C1
:1018500001DD02F09DFC4FF0020B00BFFFF72ABA3A
:101860006000002081000020880000202600002069
:10187000850000202000002066000020830000205A
:10188000001401408200002084000020220000207B
:1018900010B502460B460020002103E0545C604076
:1018A0004C1CE1B29942F9DB10BD70B50246002331
:1018B0001AE0002012E032F81060451C32F8155092
:1018C000AE4209DD32F81040451C32F8155022F8BE
:1018D0001050451C22F81540451CE8B24D1EED1A6B
:1018E0008542E8DC5D1CEBB24D1E9D42E1DC70BD23
:1018F00030B5002514212A48FFF7D7FF052405E05D
:10190000274830F814000544601CC4B20F2CF7DBE4
:101910000A20B5FBF0F080B230BD014601EBC102F8
:101920004FF0E0235A6100229A6101221A6100BF40
:101930004FF0E022106900F001021AB100F4803289
:10194000002AF5D000224FF0E0231A619A61704717
:10195000014642F228324A434FF0E0235A61002206
:101960009A6101221A6100BF4FF0E022106900F075
:1019700001021AB100F48032002AF5D000224FF0A3
:10198000E0231A619A61704710B5044605E04FF4F0
:101990007A70FFF7DDFF601E84B2002CF7DC10BD0B
:1019A000A600002010B50446CC48844208D101218D
:1019B000042000F02DFB0021042000F029FB46E06C
:1019C000C748844208D10121082000F021FB0021F2
:1019D000082000F01DFB3AE0C248844208D10121F2
:1019E000102000F015FB0021102000F011FB2EE06C
:1019F000BD48844208D10121202000F009FB0021CC
:101A0000202000F005FB22E0B848844208D10121E3
:101A1000402000F0FDFA0021402000F0F9FA16E025
:101A2000B348844208D10121802000F0F1FA00215E
:101A3000802000F0EDFA0AE0AE48844207D101218F
:101A4000801500F0E5FA0021A01500F0E1FA10BDC4
:101A500010B50121084600F0DBFA0021012000F05A
:101A6000D7FA10BD2DE9F0410246002500260020DE
:101A700000230024002791F803C00CF00F0591F813
:101A800003C00CF0100CBCF1000F03D091F802C0A1
:101A90004CEA050591F800C0BCF1000F31D0146884
:101AA00000202BE04FF0010C0CFA00F3B1F800C05D
:101AB0000CEA03069E4220D183004FF00F0C0CFA73
:101AC00003F7BC4305FA03FC4CEA040491F803C095
:101AD000BCF1280F06D14FF0010C0CFA00FCC2F843
:101AE00014C00AE091F803C0BCF1480F05D14FF0D3
:101AF000010C0CFA00FCC2F810C0401C0828D1D31D
:101B00001460B1F800C0BCF1FF0F34DD5468002050
:101B10002EE000F1080C4FF0010808FA0CF3B1F8C0
:101B200000C00CEA03069E4221D183004FF00F0C47
:101B30000CFA03F7BC4305FA03FC4CEA040491F8E1
:101B400003C0BCF1280F05D100F1080C08FA0CF80D
:101B5000C2F8148091F803C0BCF1480F07D100F11E
:101B6000080C4FF0010808FA0CF8C2F81080401C6D
:101B70000828CED35460BDE8F0814FF6FF71018094
:101B8000022181700421C1707047024600209368D1
:101B90000B400BB1012000E000207047014688682F
:101BA00080B2704702460020D3680B400BB1012081
:101BB00000E0002070470146C86880B270470161AC
:101BC0007047416170470AB1016100E041617047AF
:101BD000C16070474FF480320A4382618161826143
:101BE00082698269704702460020434B18684FF6AD
:101BF0008073184040EA021008433F4B186070475A
:101C00003E49C8617047F0B50A4600230024002110
:101C1000002500F00046B6F1004F02D1364EF169C2
:101C200001E0354E7168C0F3034583B200F44016FD
:101C3000B6F5401F08D121F070612F4E766826F06E
:101C400070662D4F7E6012E000F48016B6F5801F9E
:101C500006D1032606FA05F4A14341F0706106E0BF
:101C6000460D360103FA06F6B14341F0706122B128
:101C7000460D360103FA06F6314300F00046B6F190
:101C8000004F02D11C4EF16101E01B4E7160F0BDAE
:101C900030B500228B071C0F0F2303FA04F2164BFA
:101CA00008338C1053F824309343134C08348D10B0
:101CB00044F8253023468C1053F824308C07240F29
:101CC00000FA04F423430C4C08348D1044F82530FA
:101CD00030BD0A49DC31086070470000000801404F
:101CE000000C0140001001400014014000180140A8
:101CF000001C014000200140000001400000204283
:101D0000DF48006840F00100DD490860084640688F
:101D1000DC490840DA49486008460068DA4908406A
:101D2000D74908600846006820F48020086008460B
:101D3000406820F4FE0048604FF41F008860704740
:101D4000CF49096821F48031CD4A116011460968F4
:101D500021F480211160B0F5803F03D0B0F5802FD1
:101D60000ED106E0C649096841F48031C44A1160C9
:101D700007E0C349096841F4A021C14A116000E0AD
:101D800000BF00BF704710B50146002200230020AD
:101D90004A11012A02D1BA4C236806E0022A02D174
:101DA000B74C236A01E0B64C636A01F01F020124BC
:101DB00094401C400CB1012000E0002010BD38B55B
:101DC000002000900024002500BF3120FFF7DBFF3A
:101DD00005460098401C00900098B0F5A06F01D017
:101DE000002DF2D03120FFF7CEFF08B1012400E032
:101DF0000024204638BD01460020A14A106820F08A
:101E0000F80040EAC10010607047A04908607047C0
:101E1000024600209A4B586820F47C1042EA0103E5
:101E20001843974B586070479849086670470146B9
:101E30000020934A506820F0030008435060704728
:101E40008F48406800F00C007047014600208C4A23
:101E5000506820F0F00008435060704701460020B1
:101E6000874A506820F4E06008435060704701469C
:101E70000020834A506820F4605040EAC10050605E
:101E8000704729B17E4A527A02437D4B5A7204E070
:101E90007B4A527A82437A4B5A7270477B49D831D7
:101EA0000860704701460020754A506820F44040A1
:101EB0000843506070470021714A20321170704A07
:101EC00082F82010012802D004280AD104E0012160
:101ED0006B4A2032117005E00521694A20321170E9
:101EE00000E000BF00BF704769490860704764495F
:101EF000096A0143624A11627047654944390860C2
:101F0000704730B500210022002400235C4D6D682D
:101F100005F00C0121B1042905D0082923D105E0E1
:101F20005C4D056022E05B4D05601FE0544D6D681F
:101F300005F47012524D6D6805F48034022505EBEE
:101F400092421CB9544D554305600BE04C4D6D68F1
:101F500005F400351DB1504D5543056002E04D4D6F
:101F60005543056002E04B4D056000BF00BF444D86
:101F70006D6805F0F0010909484D6B5C0568DD40AE
:101F800045603F4D6D6805F4E061090A434D6B5CA7
:101F90004568DD4085603A4D6D6805F46051C90AB9
:101FA0003E4D6B5C4568DD40C560354D6D6805F4A0
:101FB0004041890B3A4D6B5CC568B5FBF3F5056193
:101FC00030BD29B12E4A526902432D4B5A6104E0BB
:101FD0002B4A526982432A4B5A61704729B1284AD9
:101FE00092690243264B9A6104E0254A9269824332
:101FF000234B9A61704729B1214AD2690243204B91
:10200000DA6104E01E4AD26982431D4BDA617047EF
:1020100029B11B4AD2680243194BDA6004E0184A1E
:10202000D2688243164BDA60704729B1144A1269AC
:102030000243134B1A6104E0114A12698243104BA8
:102040001A61704712494039086070470F49C864E7
:1020500070470B49C87170470948406A40F080706A
:1020600007494862704701460020054A92680A40C5
:102070000AB1012000E000207047014988727047D2
:10208000001002400000FFF8FFFFF6FE0000424291
:102090008004424200127A0000093D00280000201E
:1020A0003800002010B50446FB48844209D10121C4
:1020B0008803FFF7ADFF00214FF48040FFF7A8FF32
:1020C00032E0F648844209D101214804FFF7ADFF10
:1020D00000214FF40030FFF7A8FF25E0F0488442CC
:1020E00009D101218804FFF7A0FF00214FF48020CF
:1020F000FFF79BFF18E0EB48844209D10121C80497
:10210000FFF793FF00214FF40020FFF78EFF0BE055
:10211000E548844208D101210805FFF786FF002128
:102120004FF48010FFF781FF10BD2DE9F04786B016
:1021300005460E460024A24600BFA1460027B089EE
:1021400000B100BF2F462C8A4CF6FF700440F08887
:1021500004432C82AC894EF6F3100440B0883189D8
:102160000843718908430443AC81AC8A4FF6FF40B1
:102170000440B0890443AC8201A8FFF7C2FEC64800
:10218000874202D1DDF810A001E0DDF80CA0A8899B
:1021900000F4004040B10AEBCA0000EB0A103168BD
:1021A0004900B0FBF1F807E00AEBCA0000EB0A10A7
:1021B00031688900B0FBF1F86420B8FBF0F004014D
:1021C0002009642101FB1089A88900F4004040B176
:1021D000322000EBC900B0FBF1F000F0070004432F
:1021E00008E0322000EB09106421B0FBF1F000F0B0
:1021F0000F0004432C8106B0BDE8F0874FF4165160
:10220000016000218180C18001810C214181002178
:102210008181704710B502460020108A4FF2FF03FB
:1022200018400B884C8823438C882343CC88234355
:102230001843108210BD0021018041808180C1803F
:10224000704721B1828942F40052828104E0828980
:102250004DF6FF731A4082817047F0B503460024A3
:1022600000260025002040F66A17B94200D100BFC1
:102270001846C1F3421401F01F06012707FA06F5BC
:10228000012C01D10C3004E0022C01D1103000E00F
:1022900014301AB107682F43076002E00768AF43A4
:1022A0000760F0BD1AB1838A0B43838202E0838A00
:1022B0008B4383827047028A4FF6F0731A40028282
:1022C000028A0A430282704782894FF2FF731A40E2
:1022D000828182890A438281704721B1828942F0DA
:1022E0000202828104E082894FF6FD731A408281E6
:1022F0007047028A4FF6DF731A400282028A0A434D
:102300000282704721B1028A42F48042028204E0D4
:10231000028A4BF6FF731A4002827047C1F308022B
:102320008280704701468888C0F308007047818921
:1023300041F0010181817047028BD2B20283028B8E
:1023400042EA012202837047028B02F47F42028339
:10235000028B0A430283704721B1828A42F0200235
:10236000828204E0828A4FF6DF731A4082827047CD
:1023700021B1828A42F01002828204E0828A4FF602
:10238000EF731A408282704721B1828A42F00802BC
:10239000828204E0828A4FF6F7731A408282704785
:1023A00021B1828942F40042828103E08289C2F332
:1023B0000E028281704721B1828A42F400628282D9
:1023C00004E0828A4FF2FF731A4082827047828A49
:1023D0004FF6FB731A408282828A0A4382827047D8
:1023E00021B1828A42F00202828204E0828A4FF6A0
:1023F000FD731A408282704702460020B1F5007FCB
:1024000000D100BF13880B400BB1012000E0002079
:10241000704701F40072B2F5007F00D100BFCA43DB
:102420000280704770B5024600240023002500207A
:1024300040F66A16B14200D100BFC1F3421501F067
:102440001F03012606FA03F3012D02D196893340BA
:1024500006E0022D02D1168A334001E0968A33400D
:102460000C12012606FA04F41688344013B10CB19C
:10247000012000E0002070BD10B50022002340F6CE
:102480006A14A14200D100BF0A1201249440A3B2F1
:10249000DC43048010BD00000038014000440040CF
:1024A00000480040004C00400050004031490143CA
:1024B000314A1160704770B5002100230F22C478A3
:1024C00004B32D4C246804F4E064C4F5E064210AEC
:1024D000C1F10403CA40447804FA03F1847814403B
:1024E00021430901254C0678A155047804F01F0505
:1024F0000124AC4005786D11AD0005F1E025C5F86B
:10250000004109E0047804F01F050124AC401C4D93
:102510000678761145F8264070BD1A4A0A400243F3
:10252000154B1B1F1A60704739B1134A121D1268F0
:102530000243114B1B1D1A6006E00F4A121D126860
:1025400082430D4B1B1D1A607047042808D14FF0C1
:10255000E021096941F004014FF0E022116107E038
:102560004FF0E021096921F004014FF0E0221161F0
:10257000704700000000FA050CED00E000E400E008
:1025800080E100E080FFFF1F10B50446FA48844256
:1025900008D101214015FFF73BFD00216015FFF731
:1025A00037FD17E0F548844208D101210015FFF7F7
:1025B0002FFD00212015FFF72BFD0BE0F048844292
:1025C00008D10121C803FFF723FD00214FF400408B
:1025D000FFF71EFD10BD30B50246002000235068F5
:1025E000E84C20400D790C6844EA052420435060F3
:1025F0009068E54C2040D1E902542C434D7944EADF
:10260000450420439060D06A20F470000C7C641E66
:10261000E4B2234340EA0350D06230BD00210160A0
:10262000017141718160C16001210174704721B164
:10263000826842F00102826003E0826822F00102B7
:102640008260704721B1826842F48072826003E048
:10265000826822F480728260704710B50023CBB28A
:102660001AB144681C43446002E044689C434460DF
:1026700010BD816841F0080181607047014600206B
:102680008A6802F008020AB1012000E000207047C9
:10269000816841F0040181607047014600208A682A
:1026A00002F004020AB1012000E00020704721B1CD
:1026B000826842F4A002826003E0826822F4A002F1
:1026C00082607047014600208A6802F480020AB1E5
:1026D000012000E00020704710B50A4600210023C9
:1026E000416821F46041531E41EA4331416010BD0D
:1026F00021B1426842F40062426003E0426822F481
:10270000006242607047F0B504460D46002000218B
:10271000092D11DDE068A5F10A0606EB460707263C
:1027200006FA07F18843A5F10A0606EB460603FA06
:1027300006F10843E0600CE0206905EB4507072639
:1027400006FA07F1884305EB450603FA06F108434C
:102750002061072A0FDA606B561E06EB86071F26DC
:1027600006FA07F18843561E06EB860605FA06F1BF
:102770000843606322E00D2A0FDA206BD61F06EBB8
:1027800086071F2606FA07F18843D61F06EB860642
:1027900005FA06F10843206310E0E06AA2F10D0695
:1027A00006EB86071F2606FA07F18843A2F10D06FD
:1027B00006EB860605FA06F10843E062F0BD21B19A
:1027C000826842F48012826003E0826822F4801200
:1027D000826070470146C86C80B2704766484C30D2
:1027E0000068704721B1426842F48062426003E0B1
:1027F000426822F480624260704721B1426842F42C
:102800008052426003E0426822F480524260704786
:102810000A460021816821F4E0411143816070473C
:1028200021B1826842F40042826003E0826822F4AF
:1028300000428260704721B1826842F402128260D5
:1028400003E0826822F40212826070470146002091
:102850008A6802F400120AB1012000E000207047EB
:10286000F0B504461546002000220026092911DD96
:10287000E068A1F10A0707EB470C072707FA0CF2FB
:102880009043A1F10A0707EB470703FA07F2104349
:10289000E0600CE0206901EB410C072707FA0CF21D
:1028A000904301EB410703FA07F210432061A06B4C
:1028B000C0F30156EF1C06F1010CA7EB0C0707EB68
:1028C000870C1F2707FA0CF29043EF1C06F1010C4E
:1028D000A7EB0C0707EB870701FA07F21043A06389
:1028E000F0BD10B50A4600210023816B21F4401190
:1028F000531E41EA0351816310BD08B500230093C4
:102900000090009B0B440093009B1A6008BD08B523
:10291000024600200090009201F12800009B18441C
:1029200000900098006880B208BD0A460021416806
:10293000164B1940114341607047416282627047F3
:102940000A460021416821F01F0111434160704790
:1029500040B109490831096841F40001064A0832CA
:10296000116007E004490831096821F40001024AB6
:102970000832116070470000002401400028014027
:10298000003C0140FFFEF0FFFDF7F1FFFFFD3FFFC0
:102990000246002013680B400BB1012000E000202C
:1029A0007047CA430260704770B50246002000239A
:1029B00000240B125568CEB205EA060415681D40C6
:1029C00015B10CB1012000E0002070BD00220A12F8
:1029D000D34303607047000010B501214807FFF79B
:1029E00024FB00214FF00050FFF71FFB10BD30B556
:1029F000002200235A4C226840F6FE748440A24311
:102A0000D1E900452C438D682C43CD6844EA050389
:102A100003FA00F42243524C226030BD00210160D1
:102A200041608160C160704739B14D4A126801232D
:102A300083401A434A4B1A6006E0494A1268012350
:102A400083409A43464B1A60704741B1444A12682A
:102A50004FF4805383401A43414B1A6007E0404AC9
:102A600012684FF4805383409A433D4B1A6070477D
:102A700010B551B13A4A121D126804090123A3404E
:102A80001A43374B1B1D1A6009E0354A121D1268A4
:102A900004090123A3409A43314B1B1D1A6010BD4A
:102AA00040B12F49091D096841F003012C4A121D4C
:102AB000116007E02A49091D096821F00301284A2D
:102AC000121D1160704710B53AB1254B1B6801FA11
:102AD00000F42343224C236006E0214B1B6801FADB
:102AE00000F4A3431E4C236010BD08B500220092E1
:102AF0001B4A009200F10802009B1A440092009ABF
:102B0000116008BD08B500220092154A009200F13C
:102B10001402009B1A440092009A116008BD30B55F
:102B200000240023082802D142EA012401E042EAFD
:102B300001440B4B00F120052B441C6030BD08B54F
:102B4000014600200090064800902C2000EB9100E8
:102B5000009A104400900098006880B208BD000000
:102B60000074004010B50446FE48844208D101219B
:102B7000C014FFF74DFA0021E014FFF749FAC4E052
:102B8000B4F1804F08D101210846FFF74EFA002129
:102B90000120FFF74AFAB8E0F348844208D1012146
:102BA0000220FFF742FA00210220FFF73EFAACE0D4
:102BB000EE48844208D101210420FFF736FA0021B3
:102BC0000420FFF732FAA0E0E948844208D101214D
:102BD0000820FFF72AFA00210820FFF726FA94E0E0
:102BE000E448844208D101211020FFF71EFA002199
:102BF0001020FFF71AFA88E0DF48844208D101214B
:102C00002020FFF712FA00212020FFF70EFA7CE0C7
:102C1000DA48844208D101214014FFF7F9F9002174
:102C20006014FFF7F5F970E0D548844209D101211D
:102C3000C804FFF7EDF900214FF40020FFF7E8F991
:102C400063E0D048844209D101210805FFF7E0F98B
:102C500000214FF48010FFF7DBF956E0CA488442A8
:102C600009D101214805FFF7D3F900214FF40010E5
:102C7000FFF7CEF949E0C548844208D10121402040
:102C8000FFF7D3F900214020FFF7CFF93DE0C0481E
:102C9000844208D101218020FFF7C7F9002180205C
:102CA000FFF7C3F931E0BB48844208D10121801508
:102CB000FFF7BBF90021A015FFF7B7F925E0B648EB
:102CC000844209D101210804FFF7A2F900214FF441
:102CD0008030FFF79DF918E0B048844209D1012106
:102CE0004804FFF795F900214FF40030FFF790F901
:102CF0000BE0AB48844208D101218804FFF788F932
:102D000000214FF48020FFF783F910BD00220288D4
:102D1000944B98420ED0994B98420BD0B0F1804F13
:102D200008D0914B984205D0904B984202D0904BDE
:102D3000984204D14FF68F731A404B881A438D4B3B
:102D4000984207D08C4B984204D04FF6FF431A406C
:102D5000CB881A4302808B8883850B880385814B3F
:102D600098420BD0854B984208D08B4B984205D0A7
:102D70008A4B984202D08A4B984201D10B7A038643
:102D800001238382704770B5002400220023058C44
:102D90004FF6FE7635400584028C8388048B4FF60F
:102DA0008F752C40B51E2C400D882C43751E2A4073
:102DB0000D892A434D882A436A4DA8420BD06F4D96
:102DC000A84208D0744DA84205D0744DA84202D044
:102DD000734DA84213D14FF6F7752A404D892A4307
:102DE0004FF6FB752A408D882A434FF6FF652B402E
:102DF0004FF6FF552B408D892B43CD892B43838084
:102E00000483CD888586028470BD70B500240022BD
:102E10000023058C4FF6EF7635400584028C8388BD
:102E2000048B48F6FF752C404FF6FF452C400D886B
:102E30004FF6FF7606EA05252C434FF6DF752A404C
:102E40000D8906EA05152A434D8806EA05152A4329
:102E5000444DA84202D0494DA8421DD14FF67F757E
:102E60002A404D894FF6FF7606EA05152A434FF6AC
:102E7000BF752A408D8806EA05152A434FF6FF35AF
:102E80002B404FF2FF752B408D8906EA85052B43B9
:102E9000CD8906EA85052B4383800483CD88058789
:102EA000028470BD70B5002400220023058C4FF60B
:102EB000FF6635400584028C8388848B4FF68F75BE
:102EC0002C404FF6FC752C400D882C434FF6FF55D7
:102ED0002A400D894FF6FF7606EA05252A434D88DC
:102EE00006EA05252A431F4DA84202D0234DA842D9
:102EF0001DD14FF2FF752A404D894FF6FF7606EA45
:102F000005252A434FF6FF352A408D8806EA052518
:102F10002A434EF6FF752B404DF6FF752B408D89E9
:102F200006EA05152B43CD8906EA05152B43838058
:102F30008483CD888587028470BD70B5002200230C
:102F40000024058C4EF6FF7635400584038C84887A
:102F5000828B48F6FF752A404FF6FF452A400D88C0
:102F600020E00000002C0140000400400008004068
:102F7000000C0040001000400014004000340140EC
:102F8000004C014000500140005401400018004036
:102F9000001C00400020004000400140004401406F
:102FA000004801404FF6FF7606EA05252A434DF614
:102FB000FF752B400D8906EA05352B434D8806EA3F
:102FC00005352B43FA4DA84202D0FA4DA84208D14C
:102FD0004BF6FF752C408D894FF6FF7606EA851576
:102FE0002C4384808283CD88A0F84050038470BD38
:102FF000828B4FF2FF331A408283828B4FF6FF732E
:1030000003EA01231A4382837047F0B50C46154644
:10301000002200210026078C4EF6FF7C07EA0C07F1
:103020000784828B018C4FF6FF7707EA043640F65F
:10303000FF473A404FF6FF7707EA05273A434FF636
:10304000FF7707EA03373A43D94FB8420ED0D94F3A
:10305000B8420BD0B0F1804F08D0D74FB84205D05E
:10306000D64FB84202D0D64FB84206D14DF6FF77C0
:10307000394046F48057394305E047F6FF57394059
:1030800044F48057394382830184F0BD828B4FF62C
:10309000F3731A408283828B0A4382837047F0B5B0
:1030A0000C461546002200210026078C4FF6FF6CC7
:1030B00007EA0C070784828B018C4FF6FF7707EA3B
:1030C00004264FF60C773A404FF6FF7707EA0317CE
:1030D0002F433A43B64FB8420ED0B64FB8420BD04A
:1030E000B0F1804F08D0B44FB84205D0B34FB842CA
:1030F00002D0B34FB84206D14FF6FF57394046F4DD
:103100008077394305E04FF2FF57394044F4807728
:10311000394382830184F0BD028B4FF2FF331A40A2
:103120000283028B4FF6FF7303EA01231A430283E3
:103130007047F0B50C461546002200210026078C8A
:103140004FF6EF7C07EA0C070784028B018C4FF6E1
:10315000FF7707EA041640F6FF473A404FF6FF773D
:1031600007EA03373A434FF6FF7707EA05273A4362
:103170008F4FB8420ED08F4FB8420BD0B0F1804F76
:1031800008D08D4FB84205D08C4FB84202D08C4F3A
:10319000B84206D14FF6DF77394046F01007394381
:1031A00005E04FF65F77394044F01007394302835A
:1031B0000184F0BD028B4FF6F3731A400283028B39
:1031C0000A4302837047F0B50C46154600220021E1
:1031D000068C4FF6FE773E400684028B018C4FF63C
:1031E0000C7632407E1C06EA03162E433243704EA4
:1031F000B0420ED06F4EB0420BD0B0F1804F08D02D
:103200006D4EB04205D06D4EB04202D06C4EB04211
:1032100006D14FF6FD76314044F00106314305E01A
:103220004FF6F576314044F00106314302830184C4
:10323000F0BD70B505460C465D4885420ED05D4830
:1032400085420BD0B5F1804F08D05B48854205D050
:103250005A48854202D05A48854200D100E000BF5A
:10326000208850B92389A28861882846FFF7ABFFE0
:10327000E1882846FFF79EFF25E0208804280AD130
:103280002389A28861882846FFF753FFE1882846F2
:10329000FFF742FF17E0208808280AD12389A28877
:1032A00061882846FFF7FBFEE1882846FFF7EEFE1F
:1032B00009E02389A28861882846FFF7A6FEE188F5
:1032C0002846FFF795FE70BD2DE9F04105460C46F6
:1032D00000260127608808B9022600E00026A088A1
:1032E000012801D1022700E001272088A0B9238905
:1032F000A28861882846FFF766FFE1882846FFF725
:1033000059FF23893A4631462846FFF712FFE188E4
:103310002846FFF701FF13E02389A2886188284629
:10332000FFF707FFE1882846FFF7F6FE23893A46B4
:1033300031462846FFF747FFE1882846FFF73AFF66
:10334000BDE8F0810A884B881A438B881A43CB88E2
:103350001A430B891A434B891A438B891A43A0F8E5
:10336000442070474FF6FF71818000210180C180A9
:103370004180017270470021018041808180C180BD
:10338000018141818181C18170470021018041809B
:10339000012181800021C1800181704700210180CD
:1033A00041808180C180018141818181704700001D
:1033B000002C01400034014000040040000800409F
:1033C000000C004021B1028842F00102028004E0BA
:1033D00002884FF6FE731A400280704731B1B0F890
:1033E000442042F40042A0F8442005E0B0F8442014
:1033F000C2F30E02A0F8442070471AB183890B4330
:10340000838102E083898B43838170478182704787
:1034100041EA0203A0F8483070471AB183890B4390
:10342000838102E083898B438381704701894FF652
:10343000F8721140018170470A46002101894FF658
:103440008F73194011430181704730B504460D4612
:1034500029462046FFF7F0FF208940F00700208131
:1034600030BD2DE9F04104460D4616461F46602D3D
:1034700006D13B46012231462046FFF75AFE05E0C1
:103480003B46012231462046FFF79DFE2946204655
:10349000FFF7D2FF208940F007002081BDE8F081CE
:1034A00030B50C4600210189C9B24FF6FF7505EA17
:1034B0000325154325432943018130BD2DE9F04102
:1034C00005460E4617469846002443463A4631467E
:1034D0002846FFF7E5FF2C894FF6F870044044F0CA
:1034E00007044FF68F70044044F070042C81BDE84F
:1034F000F081F0B504460D4616461F463B4632465F
:1035000029462046FFF7CCFF208940F480402081E7
:10351000F0BD0185828270470A46002101884FF67E
:103520008F731940114301807047F0B50C46154662
:103530001E460021002200230189028B038C4FF6D6
:10354000F877394021434FF6FC473A4040F20117E3
:103550003A434FF6DD773B404FF6FF7707EA061711
:103560002F433B43018102830384F0BD0A460021BF
:10357000018B4FF68F7319401143018370470A4640
:103580000021018B48F6FF7319404FF6FF7303EAE1
:1035900002231943018370470A460021818B4FF6AD
:1035A0008F7319401143818370470A460021818B34
:1035B00048F6FF7319404FF6FF7303EA02231943DD
:1035C0008183704721B1028842F08002028004E0CA
:1035D00002884FF67F731A400280704721B18288BB
:1035E00042F00402828004E082884FF6FB731A40A6
:1035F0008280704721B1828842F00802828004E014
:1036000082884FF6F7731A408280704721B1828812
:1036100042F00102828004E082884FF6FE731A4075
:10362000828070470A460021018B4FF6F7731940DC
:103630001143018370470A460021018B4FF2FF734B
:1036400019404FF6FF7303EA0223194301837047C1
:103650000A460021818B4FF6F7731940114381838D
:1036600070470A460021818B4FF2FF7319404FF6D5
:10367000FF7303EA02231943818370470A4600213E
:10368000018B4FF6FB7319401143018370470A46C3
:103690000021018B4FF6FF3319404FF6FF7303EA09
:1036A00002231943018370470A460021818B4FF69C
:1036B000FB7319401143818370470A460021818BB7
:1036C0004FF6FF3319404FF6FF7303EA0223194305
:1036D000818370470A460021018B4FF67F731940A2
:1036E0001143018370470A460021018BC1F30E018B
:1036F0004FF6FF7303EA02231943018370470A461A
:103700000021818B4FF67F731940114381837047ED
:103710000A460021818BC1F30E014FF6FF7303EAC5
:1037200002231943818370470A460021018C4FF61A
:10373000FD7319401143018470470A460021018C32
:103740004FF6F77319401143018470470A46002170
:10375000018C4FF6DF7319404FF6FF7303EA021333
:103760001943018470470A460021018C4FF67F738C
:1037700019404FF6FF7303EA02131943018470479F
:103780000A460021018C4FF6FF5319404FF6FF7394
:1037900003EA02231943018470470A460021018C81
:1037A0004FF2FF7319404FF6FF7303EA02231943E8
:1037B000018470470A460021018C4DF6FF731940C1
:1037C0004FF6FF7303EA023319430184704730B5A3
:1037D000002301248C40A3B2048C9C430484048CF9
:1037E00002FA01F5ADB22C43048430BD30B500239C
:1037F00004248C40A3B2048C9C430484048C02FAFD
:1038000001F5ADB22C43048430BD70B503460020F1
:1038100000241846183001258D40ACB21D8CA543FC
:103820001D8409B1082909D100EB6100056825F064
:10383000700505600568154305600EE00D1FC5F3B2
:103840004E052844056825F4E045056005684FF6F7
:10385000FF7606EA02263543056070BD21B1028875
:1038600042F00202028004E002884FF6FD731A4023
:103870000280704721B1028842F00402028004E015
:1038800002884FF6FB731A400280704721B182888C
:1038900042F08002828004E082884FF67F731A40F3
:1038A0008280704702884FF6F7731A4002800288C0
:1038B0000A430280704782884FF68F731A408280D5
:1038C00082880A438280704702894FF6F8731A4053
:1038D000028102890A430281704702894FF67F7391
:1038E0001A40028102890A4302817047818470472D
:1038F000818570478186704701877047818770474F
:10390000A0F84010704702884FF6FF431A4002802B
:1039100002880A43028070470146888E704701463C
:10392000088F70470146888F70470146B1F8400004
:1039300070470146888C70470146088D70470246E3
:103940000020138A0B400BB1012000E000207047DB
:10395000CA430282704730B502460020002300248B
:10396000158A05EA0103958905EA010413B10CB132
:10397000012000E0002030BDCA43028270470000F1
:103980000648804706480047FEE7FEE7FEE7FEE7F9
:10399000FEE7FEE7FEE7FEE7FEE7FEE76F0700084B
:1039A0003101000810B5FCF7E2FE01213C20FEF7D2
:1039B00015FB01218803FEF711FB01214804FEF7E6
:1039C0001AFB01214802FEF709FB4FF40040FEF705
:1039D00069FA01214807FEF70EFB01210220FEF7DC
:1039E0000AFB10BD10B586B004464FF40070ADF868
:1039F000140003208DF8160018208DF8170005A973
:103A00006A48FEF72FF84FF48060ADF814000420E8
:103A10008DF8170005A96548FEF724F801940020E9
:103A2000ADF80800ADF80A00ADF80C00ADF81000D4
:103A30000C20ADF80E0001A95D48FEF776FB2520AD
:103A40008DF8000000208DF801008DF802000120A3
:103A50008DF803006846FEF72EFD012240F2255145
:103A60005348FEF7FAFB012240F226615048FEF768
:103A7000F4FB01214E48FEF7E4FB06B010BD10B583
:103A800086B004460420ADF8140003208DF816001B
:103A900018208DF8170005A94448FDF7E3FF08201A
:103AA000ADF8140004208DF8170005A93F48FDF774
:103AB000D9FF01940020ADF80800ADF80A00ADF878
:103AC0000C00ADF810000C20ADF80E0001A939482B
:103AD000FEF72BFB26208DF8000001208DF8010059
:103AE00000208DF8020001208DF803006846FEF7E3
:103AF000E2FC012240F225512E48FEF7AEFB0122E6
:103B000040F226612B48FEF7A8FB01212948FEF769
:103B100098FB06B010BD08B50820ADF800000320E2
:103B20008DF8020010208DF8030069462248FDF749
:103B300099FF08212048FEF742F808BD10B5044659
:103B400000BF1E4800680028FBD1601C1B490860AC
:103B50006078801C1A49087040211548FEF759FC0E
:103B600021781348FEF7DAFB10BD70B504460D4608
:103B700000BF144800680028FBD108210E48FEF75A
:103B800020F80220FDF7E4FE601C0E490860681E64
:103B90000D49087040210748FEF73BFC2178054895
:103BA000FEF7BCFB00200949087070BD0008014009
:103BB0000038014000440040001001404000002057
:103BC00044000020480000204C0000204500002058
:103BD00008B54FF48050ADF8000004208DF80300C4
:103BE00069462448FDF73EFF4FF48060ADF80000C1
:103BF00003208DF8020010208DF8030069461D484F
:103C0000FDF730FF4FF40060ADF8000003208DF8A1
:103C1000020010208DF8030069461648FDF722FFC8
:103C20004FF480611348FDF7CCFF4FF40061114859
:103C3000FDF7C7FF08BD10B54FF480610D48FDF7D3
:103C4000BEFF1420FDF784FE4FF480610948FDF7A4
:103C5000B8FF10BD10B54FF400610648FDF7AFFF87
:103C60001420FDF775FE4FF400610248FDF7A9FF2F
:103C700010BD00000014014008B50120ADF800009F
:103C800003208DF8020010208DF8030069462A48B1
:103C9000FDF7E8FE0220ADF8000003208DF80200D9
:103CA00010208DF8030069462348FDF7DBFE042051
:103CB000ADF8000003208DF8020010208DF80300FD
:103CC00069461D48FDF7CEFE01211B48FDF777FF31
:103CD00002211948FDF773FF04211748FDF76FFF14
:103CE00008BD10B501211448FDF769FF02211248F3
:103CF000FDF765FF04211048FDF763FF10BD10B507
:103D000001210D48FDF75BFF04210B48FDF757FF2C
:103D100002210948FDF755FF10BD10B502210648E4
:103D2000FDF74DFF04210448FDF749FF012102483A
:103D3000FDF747FF10BD00000010014000B587B03F
:103D40000220ADF8180000208DF81B0006A93B48A2
:103D5000FDF788FE3A48FEF717FC002001908DF829
:103D600008008DF809004FF46020039000200490B3
:103D700001208DF8140001A93148FEF72CFC122017
:103D80008DF8000002208DF8010000208DF802005F
:103D900001208DF803006846FEF78DFB01224FF4E9
:103DA00008712748FEF759FC0120FDF7B6FD0121F7
:103DB0002348FEF73CFC2248FEF75BFC00BF20488E
:103DC000FEF75CFC0028FAD11D48FEF761FC00BF3D
:103DD0001B48FEF762FC0028FAD107B000BD10B501
:103DE0000723012211461648FEF78DFC01211448D5
:103DF000FEF75DFC10BD00B585B01020ADF81000D9
:103E000003208DF8120000208DF8130004A90B4840
:103E1000FDF728FE00200090019002900220039000
:103E200069460020FEF7E3FD01210020FEF7FCFDBE
:103E300000210846FEF759FE05B000BD000801400C
:103E4000002401401FB541F61F40ADF8040040F2C8
:103E5000F310ADF808000020ADF80A00ADF8060038
:103E600001A90E48FEF752FF1D208DF80000032027
:103E70008DF8010000208DF8020001208DF803006C
:103E80006846FEF718FB012211460448FFF7B5FA11
:103E900001210248FFF796FA1FBD00000004004010
:103EA00008B54FF48040ADF8000003208DF8020003
:103EB00010208DF8030069469948FDF7D3FD4FF4B3
:103EC00080419748FDF77BFE08BD10B5002494485B
:103ED000001D006820F070609149091D08600846C7
:103EE000006840F0407008604FF480418C48FDF756
:103EF00068FE40F2EE20FDF710FD4FF48041884847
:103F0000FDF75DFE0F20FDF708FD8548001D0068E8
:103F100020F070608249091D08600846006840F082
:103F20000060086004E0601CC4B20120FDF7F5FCED
:103F30004FF480417A48FDF728FE012801D1C82CB2
:103F4000F1DBC82C01DB002010BD002404E0601C64
:103F5000C4B20120FDF7E1FC4FF480417048FDF749
:103F600014FE08B9F02CF2DBF02C01DB0020EBE7AB
:103F70000120E9E710B56A48001D006820F0706074
:103F80006749091D08600846006840F040700860F5
:103F90004FF480416248FDF714FE0220FDF7BDFC9E
:103FA0004FF480415E48FDF70AFE5D48001D006841
:103FB00020F070605A49091D08600846006840F00A
:103FC000006008600C20FDF7A8FC4FF480415448C5
:103FD000FDF7DBFD012804D13220FDF79EFC012016
:103FE00010BD3220FDF799FC0020F9E770B50026DE
:103FF000002408E0FFF7BEFF054605FA04F0304351
:10400000C6B2601CC4B2082CF4DB304670BD70B57B
:1040100005464348001D006820F070604049091DB6
:1040200008600846006840F040700860002426E000
:104030000120A040284080B14FF480413848FDF76E
:10404000C0FD0220FDF769FC4FF480413448FDF7C4
:10405000B6FD3C20FDF761FC0FE04FF48041304895
:10406000FDF7AFFD3C20FDF758FC4FF480412C4894
:10407000FDF7A5FD0220FDF750FC601CC4B2082C22
:10408000D6DB70BD10B5FFF720FF08B9002010BDCA
:10409000CC20FFF7BCFF4420FFF7B9FF0120F6E773
:1040A0002DE9F0470024FFF710FF18B96FF07F00EB
:1040B000BDE8F087CC20FFF7AAFFBE20FFF7A7FFDF
:1040C000FFF794FF0443FFF791FF44EA002404F450
:1040D000784078B1E043401C00F085FB05460022A3
:1040E000104B00F09FFA074600F09BFB40420FFA8E
:1040F00080F90CE0204600F087FB07460022094BC0
:1041000000F090FA054600F08CFB0FFA80F9FFF7FB
:10411000B9FF10B96FF07F00CAE74846C8E7000052
:10412000001401400000B03F08B54FF40050ADF856
:10413000000003208DF8020010208DF8030069466E
:104140001948FDF78FFC4FF40040ADF80000032044
:104150008DF8020010208DF8030069461248FDF723
:1041600081FC4FF400511048FDF72BFD4FF4004146
:104170000D48FDF726FD08BD10B54FF400410A4873
:10418000FDF71DFD4FF400510748FDF718FD10BD68
:1041900010B54FF400510448FDF713FD4FF40041F2
:1041A0000148FDF70EFD10BD001401402DE9F04758
:1041B00004460D461746994604F13000C0B2BC498A
:1041C0004870BC494870022C03D0012C01D0042C4B
:1041D00006D1B84805710D20B649487106261AE087
:1041E000092D11DD0A2095FBF0F03030B14908713E
:1041F0000A2095FBF0F100FB11503030AD494871B9
:104200000D208871072606E005F13000A9490871E4
:104210000D2048710626A84804704FF001081DE0E3
:104220003146A448FFF7A1FC04E06420FDF790FBB1
:10423000781EC7B2002FF8DC05219D48FFF795FCDA
:104240006420FDF785FB9D480078A84202D101203B
:10425000BDE8F08708F1010000F0FF08B8F1040F95
:10426000DEDBB9F1000F22D0052C18D2DFE804F014
:1042700003070B0F130003209149C8700FE00420BF
:104280008F49C8700BE001208D49C87007E00220FB
:104290008B49C87003E008208949C87000BF00BF7F
:1042A00000F03AF9022087490870FFF71AFD002054
:1042B000CEE72DE9FC4705460E4614461F462F2043
:1042C0008DF8000005F13000C0B2794948708DF8D2
:1042D000010043208DF80200032E03D157208DF8F2
:1042E000030004E0042E02D143208DF80300092CC2
:1042F00015DD0A2094FBF0F03030C0B28DF80400D8
:104300000A2094FBF0F100FB11403030C0B28DF870
:1043100005000D208DF806004FF0070909E004F1B3
:104320003000C0B28DF804000D208DF805004FF06C
:104330000609614805704FF001081DE049466846CE
:10434000FFF713FC04E06420FDF702FB781EC7B200
:10435000002FF8DC05215648FFF707FC6420FDF725
:10436000F7FA56480078A04202D10120BDE8FC8748
:1043700008F1010000F0FF08B8F1040FDEDB15B111
:10438000032D08D103E003204D49C87003E002204B
:104390004B49C87000BF00BF00F0BEF80220494979
:1043A0000870FFF79EFC0020E0E710B5302041497F
:1043B0004870312008710D20487106213D48FFF7F3
:1043C000D4FB4FF4FA70FDF7C3FA33203949487033
:1043D00006213848FFF7C9FB4FF47A70FDF7B8FAA9
:1043E0004FF4AF60FDF7B4FA3020314948703149DD
:1043F0004870002030490870012419E005212C483C
:10440000FFF7B3FB6420FDF7A3FA2C4800780128DE
:1044100000D10FE0032C00D108E006212548FFF76A
:10442000A4FB4FF4AF60FDF793FA00BF601CC4B269
:10443000042CE3DB00BF042C03D103202049C87007
:104440002DE033201A4948701A49487003201A4950
:10445000087001241DE005211548FFF786FB642044
:10446000FDF776FA15480078012800D110BD032C1D
:1044700000D10CE006210F48FFF777FB4FF47A706C
:10448000FDF766FA4FF4AF60FDF762FA00BF601CFB
:10449000C4B2042CDFDB02D102200949C87000F04D
:1044A0003BF8022007490870FFF71BFC0020DDE7FE
:1044B0004D0000205200002059000020450000203F
:1044C000660000208300002010B538484078401E68
:1044D000C1B23648801CFDF7DBF934490871084643
:1044E000FFF72CFB10BD10B531484078401EC1B21B
:1044F0002F48801CFDF7CCF92D4908710846FFF7BD
:104500001DFB06202B4908702B4800884FF6FE71D2
:1045100008402949088010BD10B528484078401E41
:10452000C1B22648801CFDF7B3F92449087108463A
:10453000FFF704FB0620224908701F4800884FF649
:10454000EF7108401C49088010211E48FDF739FB17
:1045500010BD10B51C484078401EC1B21A48801CDE
:10456000FDF796F9184948710846FFF7E7FA10BDBC
:1045700010B516484078401EC1B21448801CFDF7A3
:1045800087F9124948710846FFF7D8FA10BD10B5EF
:104590000F484078401EC1B20D48801CFDF778F9E5
:1045A0000B4948710846FFF7C9FA10BD5A000020B0
:1045B000600000208200002026000020660000200D
:1045C00084000020001001406C00002073000020D7
:1045D0007A00002008B51020ADF8000003208DF807
:1045E000020010208DF8030069460448FDF73AFAEE
:1045F00010210248FDF7E5FA08BD00000010014057
:1046000040EA01039B0703D009E008C9121F08C054
:10461000042AFAD203E011F8013B00F8013B521ED4
:10462000F9D270472DE9FE4F81EA030404F00044FB
:1046300021F0004100944FF0000B23F0004350EABA
:1046400001045ED052EA03045BD0C3F30A54C1F301
:104650000A552C44A4F2F3340194A0FB0254C1F394
:10466000130141F48011C3F3130343F4801301FBDE
:10467000024400FB034E840A970A44EA815447EA45
:104680008357A4FB076802958D0A05FB07854FEA4F
:10469000932C04FB0C542705029D4FEA065847EA69
:1046A0001637B5EB08056EEB070C870E920E47EA3E
:1046B000811742EA8312A7FB0201B6EB0B0164EB00
:1046C00000042B0D43EA0C335E1844EB1C50DA4611
:1046D0005146E7FB0201C5F313044FEA0B3343EAEB
:1046E00014534FEA0432019C43EA0603A4F10C047C
:1046F0000294009CCDE900B400F0C9F803B0BDE815
:10470000F08F00200146F9E72DE9F04D81EA03041E
:1047100004F0004B21F0004514464FF0000A23F04E
:10472000004150EA050220D054EA01021DD0C5F331
:104730000A570246C5F31303C1F31300C1F30A5627
:1047400040F4801543F48013A7EB0608101BD646EF
:1047500008F2FD3873EB050002D308F1010801E00F
:1047600092185B41B8F1000F03DA00200146BDE862
:10477000F08D00204FF48011064684460EE0171B92
:1047800073EB050705D3121B63EB050306434CEAE5
:10479000010C49084FEA300092185B4150EA0107CA
:1047A000EDD152EA030012D082EA040083EA050147
:1047B000084305D0101BAB4106D20122002306E0BE
:1047C00000224FF0004302E06FF0010253101AEB99
:1047D00006004CEB085110EB0A0041EB0B01BDE861
:1047E000F04D00F047B80EB5C10F80EAE070084404
:1047F000CA07002140F233438DE80E000A460B46FB
:1048000000F045F803B000BD0EB540F2334102910F
:104810000021CDE900110A460B4600F038F803B03C
:1048200000BDC1F30A5210B5C1F3130140F2FF33CA
:1048300041F480119A4201DA002010BD40F2334366
:104840009A42A2F2334203DC524200F003F810BD58
:10485000904010BD202A04DB203A21FA02F000210A
:10486000704721FA02F3D040C2F120029140084380
:104870001946704710B5002B08DA401C41F10001C1
:1048800092185B411A4301D120F0010010BD2DE9BF
:10489000F04D92469B4611B1B1FA81F202E0B0FAB6
:1048A00080F22032904600F053F804460F4640EA6A
:1048B0000A0041EA0B0153465A46084313D01146F9
:1048C00053EA010019D0C8F140025046FFF7C2FF79
:1048D00005460E4650465946424600F039F8084310
:1048E00005D0012004E020463946BDE8F08D0020C7
:1048F000054346EAE0762C4337430A986305E40A09
:10490000A0EB08000022FD0A44EA47540A3002D511
:1049100000200146E9E7010510196941DDE9084574
:1049200000196941BDE8F04DA4E70000064C074DB1
:1049300006E0E06840F0010394E80700984710346F
:10494000AC42F6D3FBF7F8FB8C490008AC490008F1
:10495000202A04DB203A00FA02F10020704791403F
:10496000C2F1200320FA03F319439040704702E09C
:1049700008C8121F08C1002AFAD1704770470020EA
:1049800001E001C1121F002AFBD17047AC490008A9
:1049900000000020880000006E490008344A00082A
:1049A00088000020984900007E49000800000000AF
:1049B000000000000000000000A24A040000000007
:1049C00000000000010203040607080900000000BF
:1049D00000000000000000000102030401020304C3
:1049E0000607080902040608000000000000000095
:1049F0000000000000000000002F0043500D2F00B9
:104A0000474F000000000000000000000000000010
:104A10000000000000000000000000000000000096
:104A20000000000000000000000000000000000086
:044A30000000000082
:0400000508000131BD
:00000001FF
